:0C800000F8B500BFF8BC08BC9E467047F5
:1080100008B5064B044613B10021AFF30080044BB2
:108020001B6803B19847204600F0F8FC00000000F0
:1080300038C900000348044B834202D0034B03B10C
:1080400018477047E4C70000E4C7000000000000C4
:108050000548064B1B1AD90F01EBA301491002D0AA
:10806000034B03B118477047E4C70000E4C70000A2
:108070000000000010B5064C237843B9FFF7DAFF83
:10808000044B13B10448AFF300800123237010BDEB
:10809000E4C700000000000050B6000008B5054B22
:1080A0001BB105490548AFF30080BDE80840FFF764
:1080B000CFBF00BF00000000E8C7000050B60000BE
:1080C000002A01D002F5807A704700BF162031A146
:1080D000ABBE30484168002901D0364A11600168C2
:1080E000002901D1324901608168C2682A4B002908
:1080F00000D00B469D46FFF7E3FF00218B460F465D
:108100002648274A121A00F0E7F900F00BFF152065
:108110002649ABBE25490968002001B40B7801311E
:10812000002B15D0202BF9D0222B01D0272B01D1E9
:108130001A0001E02022013902B401300B7801312C
:10814000002B05D09A42F9D100224B1E1A70E5E7A8
:108150006946020092006A446B469A4206D9043A84
:1081600014681D6815601C600433F6E76C4607252B
:10817000AC43A54604000D000A48002802D00A4876
:10818000AFF3008000F054FA2000290000F0E0FF77
:10819000FFF73EFF60C6000000000000E4C70000DB
:1081A0000CCA0000000000000000000070C70000C2
:1081B0000CCA0000D4C70000002310B50446C0E973
:1081C0000033C0E90433836081814366C2818361E7
:1081D000194608225C3000F07FF90D4B63620D4BAD
:1081E000A3620D4BE3620D4B23630D4B24629C4253
:1081F00006D003F16802944202D0D0339C4205D1EC
:1082000004F15800BDE8104000F037BA10BD00BFBF
:108210004D84000073840000AB840000D184000012
:1082200000C80000024A0349034800F0F1B800BF4B
:1082300078C700008589000088C7000041680C4BA2
:10824000994210B5044601D000F09CFBA168094B8F
:10825000994202D0204600F095FBE168064B994216
:1082600004D02046BDE8104000F08CBB10BD00BF1C
:1082700000C8000068C80000D0C8000008B54B6EF8
:10828000DA0705D48B899B0502D4886D00F0F9F9D3
:10829000002008BD08B54B6EDA0705D48B899B0515
:1082A00002D4886D00F0F3F9002008BD0C4B0D4A94
:1082B0000D4810B504211A600022FFF77DFF0A4B1C
:1082C00001221C46092103F16800FFF775FF04F144
:1082D000D0000222BDE810401221FFF76DBF00BFA1
:1082E00038C900002582000000C80000014800F0E5
:1082F000C8B900BF47C90000014800F0C8B900BFB5
:1083000047C90000F8B50746FFF7F0FF234B1B688D
:108310000BB9FFF7CBFF224ED6E90134013B0FD555
:108320003568002D38D14FF4D671384600F01CFA6C
:10833000044628BB3060FFF7DFFF0C233B601BE0E7
:10834000B4F90C50D5B9174BE36004F158006566D9
:1083500000F093F9FFF7D0FFC4E90155C4E90455D3
:108360002560A5610822294604F15C0000F0B4F8FC
:10837000C4E90D55C4E912552046F8BD6834CDE76F
:108380000423056043600C302946A0604FF4D0728E
:1083900000F0A2F8254634602E46BDE738C900003B
:1083A00078C700000100FFFF10B50446FFF79EFFED
:1083B000236A1BB1BDE81040FFF79EBF044B236248
:1083C000044B1B68002BF5D1FFF770FFF2E700BFED
:1083D0003D82000038C9000008B5FFF787FFBDE8FF
:1083E0000840024A0249002000F012B878C7000095
:1083F0007D82000008B5044A0449002000F008F816
:10840000BDE80840FFF778BF78C7000095820000FC
:108410002DE9F8430746884614460026D4E901951D
:10842000B9F1010905D52468002CF7D13046BDE823
:10843000F883AB89012B07D9B5F90E30013303D08E
:1084400029463846C04706436835E9E710B50C466B
:10845000B1F90E1000F0C8F80028ABBF636DA38916
:108460001B1823F48053ACBF6365A38110BD0020AB
:1084700070472DE9F0411F468B89DB0505460C4608
:10848000164605D5B1F90E100223002200F09AF825
:10849000A389B4F90E1023F48053A38132463B46DE
:1084A0002846BDE8F04100F0B1B810B50C46B1F96E
:1084B0000E1000F087F8B4F90C30421C0BBF23F407
:1084C000805343F48053A381A38118BF606510BD1E
:1084D000B1F90E1000F008B802440346934200D1EF
:1084E000704703F8011BF9E738B5064D0023044631
:1084F00008462B6000F08EFB431C02D12B6803B1B1
:10850000236038BD3CC900002D4B1B68834270B509
:10851000044653D0C3691BB3DB6863B10025E3692C
:10852000DB685959B1B90435802DF8D1E36920468B
:10853000D96800F0ADF8E369196811B1204600F080
:10854000A7F8E3699D685DB1294620462D6800F0D3
:108550009FF8F8E70E68204600F09AF83146E1E708
:10856000616911B1204600F093F8E16911B120462C
:1085700000F08EF8216B11B1204600F089F8616B94
:1085800011B1204600F084F8A16B11B1204600F033
:108590007FF8A16C11B1204600F07AF8616C11B13E
:1085A000204600F075F8E16A11B1204600F070F83D
:1085B000236A1BB12046BDE87040184770BD00BF5C
:1085C00084C7000038B5074D04460846114600220E
:1085D0002A601A4600F0DFFA431C02D12B6803B16F
:1085E000236038BD3CC9000038B5074D0446084635
:1085F000114600222A601A4600F077FA431C02D185
:108600002B6803B1236038BD3CC9000038B5074D65
:1086100004460846114600222A601A4600F025FE4C
:10862000431C02D12B6803B1236038BD3CC9000054
:1086300070B50D4B0D4D5B1B9C100026A64209D159
:10864000FFF7DEFC0A4D0B4B5B1B9C100026A6427D
:1086500005D170BD55F8043B98470136EEE755F853
:10866000043B98470136F2E754C6000054C60000A8
:1086700054C6000058C600007047704770477047E6
:10868000704770470120704701207047704770475E
:1086900038B50546002941D051F8043C0C1F002B89
:1086A000B8BFE41800F0E0F81D4A136833B96360FE
:1086B00014602846BDE8384000F0DCB8A34208D971
:1086C000206821188B4201BF19685B680918216076
:1086D000EDE71A465B680BB1A342FAD9116850184E
:1086E000A0420BD120680144501883421160E0D1B0
:1086F00018685B68536008441060DAE702D90C23FD
:108700002B60D6E7206821188B4204BF19685B688C
:10871000636004BF091821605460CAE738BD00BF18
:108720004CC9000070B50F4E0C463168054611B9B2
:1087300000F064F930602146284600F05FF9431CE0
:1087400003D14FF0FF34204670BDC41C24F0030455
:10875000A042F8D0211A284600F050F90130F2D199
:10876000EFE700BF48C900002DE9F843CD1C25F014
:10877000030508350C2D38BF0C25002D064601DBFE
:10878000A94204D90C2333600020BDE8F883DFF848
:10879000D48000F069F8D8F800301C4644BB294664
:1087A0003046FFF7BFFF431C044658D1D8F80040BD
:1087B0002746002F43D1002C4BD023683946304642
:1087C00004EB030900F01AF9814542D121686D1AC2
:1087D00029463046FFF7A6FF01303AD023682B44E4
:1087E0002360D8F800305A6862BBC8F800700FE008
:1087F0002268521B20D40B2A17D96119A342256085
:1088000018BF5960636808BFC8F8001062514B6018
:10881000304600F02FF804F10B00231D20F0070074
:10882000C21A1CBF1B1AA350AFE76268A3420CBF59
:10883000C8F800205A60EBE723466468AEE73C4680
:108840007F68B6E71A465B68A342FBD100235360FA
:10885000DEE70C233360304600F00CF894E7056047
:10886000D6E700BF4CC900000148FFF70ABF00BFB0
:1088700044C900000148FFF70ABF00BF44C9000017
:10888000B1F90C202DE9F041160705460C4651D4EC
:108890004B68002B02DC0B6C002B49DDE66A002ED6
:1088A00046D0002312F480522F682B6031D0626DC5
:1088B000A389590705D56368D21A636B0BB1236C82
:1088C000D21A0023E66A216A2846B047421CB4F94E
:1088D0000C3006D129681D2946D8294ACA40D60736
:1088E00042D500226260D9042269226004D5421C6C
:1088F00001D12B6803B96065616B2F60C1B104F1D0
:108900004403994202D02846FFF7C2FE0023636366
:108910000EE0216A01232846B0470246501CC7D109
:108920002B68002BC4D01D2B01D0162B1AD12F6021
:1089300000201EE00F69002FFAD093070E6808BFD1
:108940004B690F6018BF0023A6EB07088B60B8F1D6
:10895000000FEDDD216AA66A43463A462846B04735
:10896000002808DCB4F90C3043F04003A3814FF039
:10897000FF30BDE8F0810744A8EB0008E7E700BF3F
:108980000100402038B50B6905460C4613B9002597
:10899000284638BD18B1036A0BB9FFF705FDB4F9D5
:1089A0000C30002BF3D0626ED00704D4990502D4AA
:1089B000A06DFFF766FE28462146FFF761FF636E54
:1089C000DA070546E4D4A3899B05E1D4A06DFFF73F
:1089D0005EFEDDE7014620B9044A05490548FFF778
:1089E00017BD054B1868FFF7CDBF00BF78C7000063
:1089F0008589000088C7000084C7000038B5064D8F
:108A00000023044608462B6000F02CF9431C02D1D9
:108A10002B6803B1236038BD3CC90000014608B58E
:108A2000024A4FF0FF3000F003F800BF26000200BA
:108A300007B5CDE9002100F05DFA00280CBF18242D
:108A4000202400F057FA20B16D4620462946ABBEDF
:108A50000446009DF9E70000062908B50CBF024A4C
:108A6000024AFFF7E5FF00BF2300020026000200D4
:108A70000A4B10B50446186818B1036A0BB9FFF722
:108A800093FC132C07D8064850F83420013202D04A
:108A900000EBC40010BD0020FCE700BF84C700004D
:108AA00060C90000F8B5044601F028FF132605460A
:108AB000002730463946ABBE06462E602046F8BD3C
:108AC000431C01D1FFF7EEBF704730B585B0CDE94B
:108AD00001010392062401AD20462946ABBE04469F
:108AE0002046FFF7EDFF05B030BD70B50E461446C9
:108AF000FFF7BEFF054630B901F000FF0923036010
:108B00004FF0FF3070BD006822463146FFF7DDFFB1
:108B1000431CF5D06B68201A03446B60F2E7F7B58D
:108B20000C461646FFF7A4FF054640B901F0E6FEE5
:108B3000092303604FF0FF34204603B0F0BD022E3E
:108B400003D901F0DBFE1623F3E7012E12D14368AF
:108B5000E418F6D42B680A26CDE900346F46304677
:108B60003946ABBE06463046FFF7AAFF0028E1DBD8
:108B70006C60E1E7022EEDD1036800930C266F468E
:108B800030463946ABBE06463046FFF799FF431CD8
:108B9000D0D00444DEE7FFF7C2BF30B585B0CDE9E1
:108BA00001010392052401AD20462946ABBE0446CF
:108BB0002046FFF785FF05B030BD70B50E4615465F
:108BC000FFF756FF044630B901F098FE0923036011
:108BD0004FF0FF3070BD00682A463146FFF7DDFFD9
:108BE000031EF5DB6268E81A0244AB426260F1D111
:108BF000BDE870400020FFF755BF37B50224019053
:108C000001AD20462946ABBE04462046FFF758FF7B
:108C100003B030BD38B50546FFF72AFF044630B92A
:108C200001F06CFE092303604FF0FF3038BD013DB9
:108C3000012D09D8094B9A681B699A4204D14FF05B
:108C4000FF3303600020F1E72068FFF7D6FF00281C
:108C5000ECD14FF0FF332360E8E700BF60C90000AC
:108C6000012070470D4A0346106810B508B90C483A
:108C70001060034469468B4206D80A490A4C0968C9
:108C8000A14208D08B4206D901F038FE0C230360C4
:108C90004FF0FF3010BD1360FCE700BF50C900006B
:108CA0000CCA0000D4C70000ADDEFECA70B50C4689
:108CB000FFF7DEFE054630B901F020FE0923036010
:108CC0004FF0FF3070BD636843F4005363604FF4AE
:108CD0008063A3640C2630462946ABBE0546284671
:108CE000FFF7EEFE431CEBD020610020EAE70B46C5
:108CF00010B50021044658221846FFF7EDFB014647
:108D00002046BDE81040FFF7D1BF38B50D460446F8
:108D1000582200212846FFF7DFFB2046002100F003
:108D200011F8431C04460BD06B6843F401436B609D
:108D30002946FFF7BBFF05462046FFF76BFF2C4691
:108D4000204638BD2DE9F043DFF8A89097B00746DC
:108D50000E46002459F8343001334FEAC40833D0AA
:108D60000134142CF6D101F0C9FD18233AE0C6F302
:108D70000045B20740F2016348BF45F002051E42BC
:108D800018BF45F00405330748BF25F004053846F1
:108D900048BF45F00805009701F0B6FDCDE9015048
:108DA0006E46012528463146ABBE0546002D06DB42
:108DB000C844002349F83450C8F8043015E0284668
:108DC000FFF770FE044610E006F42063B3F5206F51
:108DD000CDD169463846FFF798FF0130C7D001F082
:108DE0008DFD112303604FF0FF34204617B0BDE81E
:108DF000F08300BF60C900000EB400B50199FFF711
:108E0000A1FF5DF804EB03B0704700002DE9F743C4
:108E100006460F46294800211546FFF793FF2A46CC
:108E2000044600213046FFF757FB631C14D0204650
:108E3000FFF71EFE4FF00C08814640464946ABBE88
:108E400080464046FFF73CFE032802DDC31EAB42CE
:108E500007DC2046FFF7DEFE4FF0FF3003B0BDE831
:108E6000F08304220DEB02012046FFF73EFE0328AB
:108E7000EFDD9DF80430532BEBD19DF80530482BE6
:108E8000E7D19DF80630462BE3D19DF80730422B01
:108E9000DFD1012239462046FFF741FE0028D8DB0A
:108EA0002A4631462046FFF720FE05462046FFF7BA
:108EB000B1FE2846FFF704FED0E700BF48B500002A
:108EC00037B50A4D0A4C0021012201A82960226011
:108ED000FFF79CFF002807DD9DF8043003F0010236
:108EE00003F002032A60236003B030BDDCC700003A
:108EF000D8C7000010B5044C2368002B01DAFFF737
:108F0000DFFF206810BD00BFDCC7000010B5044CB7
:108F10002368002B01DAFFF7D3FF206810BD00BFE4
:108F2000D8C700002DE9FF47284F019703230024ED
:108F300003930125029401AE28463146ABBE054697
:108F4000DFF898802346224CC8F800504FF0FF32DB
:108F500044F833200133142BFAD1FFF7D7FF1D4D0E
:108F6000D8B104234FF0030901970126CDF80C90E6
:108F70000DEB030A029330465146ABBE8246164BB8
:108F80000197C3F800A00823CDF80C9001AF02931D
:108F900030463946ABBE06462E602B68013302BF11
:108FA0000D4B1B682B600026D8F8003023606660EC
:108FB000FFF7ACFF30B1084B1B68C4E902362B68E1
:108FC000C4E9043604B0BDE8F08700BF5EB5000018
:108FD00060C9000054C9000058C900005CC9000005
:108FE00008B501F08BFC582303604FF0FF3008BD3B
:108FF00037B5009001F088FC0E2401906D462046A4
:109000002946ABBE0446631C04D12046FFF74AFD47
:1090100003B030BD0020FBE7F0B50D46044648B173
:109020000027112630463946ABBE0646F317C4E981
:109030000063A76015B10023C5E900330020F0BD2F
:1090400030B51024002520462946ABBE04462046F4
:1090500030BD10B50446FFF7F3FF24B10023C4E987
:1090600001332060E36010BD70B5FFF701FD0924F6
:10907000054620B901F042FC0460002070BD204686
:109080002946ABBE0446012C2046F7D001F036FC41
:1090900013250446002628463146ABBE054625600A
:1090A000EBE737B5C8B1009001F02EFC1224019017
:1090B0006D4620462946ABBE04462046FFF700FD1C
:1090C000FF28034602D903B030BD40000028FAD083
:1090D000C0F307229A42F6D0F7E70120F3E730B554
:1090E00085B00C46009001F00FFCCDE9010420464C
:1090F00001F00AFC0F2403906D4620462946ABBEC2
:1091000004462046FFF7DCFC003818BF012040422F
:1091100005B030BD80B483B000AF0346FB7197F952
:109120000730002B0CDBFB7903F01F02074997F98E
:1091300007305B09012000FA02F2603341F8232076
:1091400000BF0C37BD465DF8047B704700E100E0CE
:1091500080B500AF00F0ECFF1B4801F0D1F81B48D0
:1091600001F00CFB01F0A8FA00F036FF4FF4FA62B0
:1091700040F6B831182000F0ABFD1821082000F0AF
:1091800067FA00F081FD124B1B68002B09D0114BD0
:109190001B881946104801F09FFB0D4B00221A60F6
:1091A00002E00E4801F098FB0D4B1B78002B05D018
:1091B0000C4801F091FB0A4B00221A704FF4967094
:1091C00001F0E8F8DFE700BF8038010000B4C40414
:1091D00000CA000004CA000098B50000B0B5000045
:1091E00006CA0000C8B5000080B500AF114B1B686F
:1091F00003F00403002B08D000F022FD03461A46BA
:109200000D4B1A800D4B01221A600A4B1B6803F0AC
:109210008003002B08D0074B1B68064A43F08003ED
:109220001360074B01221A701220FFF773FF00BF73
:1092300080BD00BF0000045004CA000000CA000046
:1092400006CA000080B584B000AF78607B68DBB2EE
:109250003B7307F10C0364220121184601F0EAFA7E
:109260007B6818461037BD4680BD80B586B000AF1C
:10927000F860B9607A6000237B6109E0BB685A1C22
:10928000BA601B781846FFF7DDFF7B6901337B610D
:109290007A697B689A42F1DB7B6818461837BD46CD
:1092A00080BD000080B400AF064BD3F88830054A7B
:1092B00043F47003C2F8883000BFBD465DF8047BFC
:1092C000704700BF00ED00E080B487B000AF4F4BA7
:1092D0001B6803F00803002B07D14C4BD3F89430E4
:1092E0001B0A03F00F037B6105E0484B1B681B0959
:1092F00003F00F037B61464A7B6952F823307B61A0
:10930000424B9B6803F00C030C2B66D801A252F869
:1093100023F000BF49930000DB930000DB930000C3
:10932000DB93000051930000DB930000DB9300000F
:10933000DB93000059930000DB930000DB930000F7
:10934000DB93000061930000324A7B69136048E0C0
:10935000304B314A1A6044E02E4B304A1A6040E0EC
:109360002A4BDB6803F00303FB60284BDB681B0917
:1093700003F007030133BB60FB68022B03D0FB68DB
:10938000032B06D00BE0244ABB68B2FBF3F33B612E
:109390000BE0224ABB68B2FBF3F33B6105E07A695C
:1093A000BB68B2FBF3F33B6100BF184BDB681B0AE1
:1093B00003F07F023B6902FB03F33B61134BDB6865
:1093C0005B0E03F0030301335B007B603A697B684B
:1093D000B2FBF3F30F4A136003E00E4A7B6913609C
:1093E00000BF0A4B9B681B0903F00F030C4AD35CB8
:1093F0003B60084B1A683B6822FA03F3054A136086
:1094000000BF1C37BD465DF8047B7047001002406A
:10941000F4B50000E0C700000024F40000127A0058
:10942000DCB5000080B483B000AF0346FB7197F950
:109430000730002B0BDBFB7903F01F02074997F97C
:1094400007305B09012000FA02F241F8232000BF37
:109450000C37BD465DF8047B704700BF00E100E0BB
:1094600080B483B000AF0346FB7197F90730002B3F
:1094700012DBFB7903F01F020A4997F907305B09F9
:10948000012000FA02F2203341F82320BFF34F8F6E
:1094900000BFBFF36F8F00BF00BF0C37BD465DF844
:1094A000047B704700E100E080B483B000AF034666
:1094B0003960FB7197F90730002B0ADB3B68DAB2A1
:1094C0000C4997F907301201D2B20B4483F80023FC
:1094D0000AE03B68DAB20849FB7903F00F03043B6A
:1094E0001201D2B20B441A7600BF0C37BD465DF8AC
:1094F000047B704700E100E000ED00E080B582B041
:1095000000AF03460A46FB711346BB714D4BDB6C43
:109510004C4A43F40053D3644A4BD3F88830494A49
:1095200023F04053C2F88830464BD3F88830454A80
:1095300043F08053C2F88830434B9B68424A23F083
:1095400001039360404BD3F8B0303F4A23F4D0730B
:10955000C2F8B0303D4B9B683C4A23F440339360E3
:109560003A4B9B68394A23F470139360364B9B68DF
:10957000354A23F000539360334B9B68324A43F0E3
:109580008053936000F06CFB2F4B9B682E4A23F0B6
:10959000804393602C4B9B682B4A43F000439360BD
:1095A00000BF294B9B68002BFBDB274BDB68264A5F
:1095B00023F02003D360244BDB68234A43F4005399
:1095C000D360214BDB68204A43F48043D3601E4BB9
:1095D0005B691D4A23F4E01353611B4B5B691A4A14
:1095E00023F0E0635361184B5B69174A23F0605323
:1095F0005361154B5A69BB79032101FA03F31249F0
:1096000013434B61104B1B6B0F4A23F00F03136383
:109610000D4B1B6B0C4A23F4F86313630A4B1A6B54
:10962000FB799B01084913430B63074BDB68064A30
:1096300023F44063D36000F09DFA00BF0837BD46B5
:1096400080BD00BF00100240000004500003045021
:1096500080B582B000AF03460A46FB711346BB716A
:10966000454BDB6C444A43F40053D364434B9B6843
:10967000424A23F001039360404BD3F8B0303F4A95
:1096800023F4D073C2F8B0303D4B9B683C4A23F4BE
:10969000403393603A4B9B68394A43F4803393607C
:1096A000364B9B68354A23F000539360334B9B68DD
:1096B000324A43F08053936000F0D2FA2F4B9B68FC
:1096C0002E4A23F0804393602C4B9B682B4A43F037
:1096D0000043936000BF294B9B68002BFBDB274BAB
:1096E000DB68264A23F02003D360244BDB68234A3F
:1096F00043F40053D360214BDB68204A43F480439A
:10970000D3601E4B5B691D4A23F4E01353611B4B6E
:109710005B691A4A23F0E0635361184B5B69174A8F
:1097200023F060535361154B5A69BB79032101FA49
:1097300003F3124913434B61104B1B6B0F4A23F089
:109740000F0313630D4B1B6B0C4A23F4F863136375
:109750000A4B1A6BFB799B01084913430B63074BB8
:10976000DB68064A23F44063D36000F003FA00BFCD
:109770000837BD4680BD00BF001002400000045005
:109780000003045080B500AF584BDB6C574A43F4DC
:109790000053D364564B9B68554A23F4403393607F
:1097A000534B9B68524A43F480339360514B9B6800
:1097B000504A23F0005393604E4B9B684D4A43F050
:1097C0008053936000F04CFA4A4B9B68494A23F05F
:1097D00080439360474B9B68464A43F00043936045
:1097E00000BF444B9B68002BFBDB424BDB68414ACC
:1097F00023F02003D3603F4BDB683E4A23F4005341
:10980000D3603C4B5B693B4A23F4E0135361394B13
:109810005B69384A23F0E0635361364B5B69354A34
:1098200023F060535361334B5B69324A43F040731A
:109830005361304B5B692F4A43F0C05353612D4B4A
:109840001B6B2C4A23F00F0313632A4B1B6B294A13
:1098500043F001031363274B1B6B264A23F4F86381
:109860001363244B1B6B234A43F400731363214B94
:109870001B6B204A23F4F83313631E4B1B6B1D4AEA
:1098800043F4104313631B4BDB681A4A23F4406311
:10989000D360184B1B68174A43F001031360154B44
:1098A0009B68144A43F00103936000BF114B9B680F
:1098B00003F00103002BF9D00E4B1B680D4A43F057
:1098C000010313600B4BDB680A4A43F00103D360CA
:1098D000084BDB68074A43F00203D360054B9B68E3
:1098E000044A43F00403936000BF80BD00100240AF
:1098F000000304500000045080B500AF644BDB6CE3
:10990000634A43F40053D364624B9B68614A23F477
:10991000403393605F4B9B685E4A43F480339360AF
:109920005D4B9B685C4A23F0005393605A4B9B68E5
:10993000594A43F08053936000F092F9564B9B686C
:10994000554A23F080439360534B9B68524A43F03F
:109950000043936000BF504B9B68002BFBDB4E4BDA
:10996000DB684D4A23F02003D3604B4BDB684A4A47
:1099700023F40053D360484B5B69474A23F4E01358
:109980005361454B5B69444A23F0E0635361424BAA
:109990005B69414A23F0605353613F4B5B693E4A28
:1099A00043F4402353613C4B5B693B4A43F04073B3
:1099B0005361394B5B69384A43F0C0535361364BAE
:1099C0001B6B354A23F00F031363334B1B6B324A77
:1099D00043F001031363304B1B6B2F4A23F4F863EE
:1099E00013632D4B1B6B2C4A43F4007313632A4BF8
:1099F0001B6B294A23F4F8331363274B1B6B264A4E
:109A000043F410431363244BDB68234A23F440637D
:109A1000D360214BDB68204A43F48063D3601E4B44
:109A2000DB681D4A23F47073D3601B4BDB681A4A52
:109A300043F45073D360184B1B68174A43F001037B
:109A40001360154B9B68144A43F00103936000BFF9
:109A5000114B9B6803F00103002BF9D00E4B1B68E0
:109A60000D4A43F0010313600B4BDB680A4A43F0D5
:109A70000103D360084BDB68074A43F00203D3605D
:109A8000054B9B68044A43F00403936000BF80BD0C
:109A900000100240000304500000045080B582B062
:109AA00000AF78602F4B9B6C2E4A23F00103936428
:109AB0002C4B9B6C2B4A43F0010393642A4B5B684D
:109AC000294A43F001035360284B294A9A60274AE8
:109AD0007B68D360254B02225A60244B00221A6017
:109AE000224B1B68214A43F00203136000210B2024
:109AF000FFF7DAFC0B20FFF795FC1C4B1B681B4A99
:109B000023F010031360194B1B68184A43F020031D
:109B10001360164B1B68154A23F040031360134B68
:109B20001B68124A43F080031360104B1B680F4AF6
:109B300043F4807313600D4B1B680C4A43F480633D
:109B400013600A4B1B68094A43F440531360074BE8
:109B50001B68064A43F00103136000BF0837BD4687
:109B600080BD00BF0010024000000240080002401B
:109B70004000045080B400AF114B1B68104A43F002
:109B8000010313600E4B9B680D4A43F00103936081
:109B900000BF0B4B9B6803F00103002BF9D0084B6F
:109BA0001B68074A43F001031360054B9B68044A96
:109BB00043F00403936000BFBD465DF8047B70472B
:109BC0000000045080B400AF00BF0C4B9B6803F052
:109BD0000C03002BF9D1094B9B68084A43F00203A0
:109BE000936000BF054B9B6803F00103002BF9D184
:109BF00000BF00BFBD465DF8047B70470000045005
:109C000080B584B000AF786000F0B8FBF86009E080
:109C100000F0B4FB0246FB68D31A7A689A4201D27C
:109C2000002306E0054B1B6803F00403002BEFD074
:109C3000012318461037BD4680BD00BF0000045008
:109C400080B400AF054B1B6C9BB2C3F30B039BB2FC
:109C50001846BD465DF8047B704700BF0000045005
:109C600080B483B000AF00237B6002E07B680133E7
:109C70007B607B68B3F5FA6FF8D300BF00BF0C3789
:109C8000BD465DF8047B704780B500AF074B5B684D
:109C9000064A43F0040353601220FFF7C3FB002180
:109CA0001220FFF701FC00BF80BD00BF0000045080
:109CB00080B500AF054B5B68044A23F00403536092
:109CC0001220FFF7CDFB00BF80BD00BF0000045095
:109CD00080B582B000AF0346FB710B46BB801346D4
:109CE0007B801F4B00221A621D4B1B6ABA8811042D
:109CF0007A880A4311461A4A0B431362184BDB68F1
:109D0000174A23F0F843D360154BDA68FB799B06BA
:109D100013491343CB60124BDB68114A43F4000331
:109D2000D3600F4BDB680E4A43F48003D3600C4BC7
:109D3000DB680B4A23F08073D360094B5B68084AE9
:109D400043F0800353601220FFF76CFB044BDB6889
:109D5000034A43F40003D36000BF0837BD4680BD0B
:109D60000000045080B483B000AF0346FB7197F944
:109D70000730002B0BDBFB7903F01F02074997F933
:109D800007305B09012000FA02F241F8232000BFEE
:109D90000C37BD465DF8047B704700BF00E100E072
:109DA00080B483B000AF03463960FB7197F9073088
:109DB000002B0ADB3B68DAB20C4997F90730120135
:109DC000D2B20B4483F800230AE03B68DAB20849B8
:109DD000FB7903F00F03043B1201D2B20B441A7655
:109DE00000BF0C37BD465DF8047B704700E100E022
:109DF00000ED00E080B500AF224BDB6C214A43F060
:109E00000103D3641F4B1B6E1E4A43F0010313660C
:109E10004FF090431B684FF0904223F04073136063
:109E20004FF09043DB684FF0904223F04073D360D3
:109E30004FF09043DB684FF0904243F08073D36063
:109E4000114B5B69104A23F0070353610F4B1B68EA
:109E50000E4A43F4805313600C4B9B680B4A43F447
:109E600080539360094BDB68084A23F48053D36026
:109E70000F212820FFF794FF2820FFF773FF00BF72
:109E800080BD00BF001002400000014000040140FE
:109E900080B400AF1A4BDB6C194A43F00203D36461
:109EA000184B1B68174A23F0C0031360154B1B683F
:109EB000144A43F040031360124BDB68114A23F04D
:109EC000C003D3600F4BDB680E4A43F04003D360FE
:109ED0000C4B5B680B4A23F008035360094B9B68EB
:109EE000084A23F0C0039360064B9B68054A43F081
:109EF0008003936000BFBD465DF8047B704700BFE0
:109F0000001002400004004880B400AF054B5B69BC
:109F1000044A83F00803536100BFBD465DF8047B2B
:109F2000704700BF0004004880B483B000AF034610
:109F3000FB71FB79002B06D0094B5B69084A43F0A3
:109F40000803536105E0064B5B69054A63F00803AB
:109F5000536100BF0C37BD465DF8047B704700BFFE
:109F60000004004880B400AF114BDB6C104A43F092
:109F70000103D3644FF090431B684FF0904223F0ED
:109F8000407313604FF09043DB684FF0904223F032
:109F90004073D3604FF09043DB684FF0904243F042
:109FA0008073D36000BFBD465DF8047B704700BF7F
:109FB0000010024080B400AF4FF090431B6903F4DF
:109FC0008053002B14BF01230023DBB21846BD468B
:109FD0005DF8047B7047000080B400AF204B9B6CA1
:109FE0001F4A23F0010393641D4B9B6C1C4A43F0F2
:109FF000010393644FF090431B684FF0904223F0AD
:10A000000C0313604FF090431B684FF0904223F015
:10A01000C00313604FF090431B684FF0904223F44D
:10A02000407313604FF090431B684FF0904243F031
:10A030000C0313604FF090431B684FF0904243F0C5
:10A04000C00313604FF090431B684FF0904243F4FD
:10A050004073136000BFBD465DF8047B704700BFCE
:10A060000010024080B483B000AF0346FB7197F943
:10A070000730002B0BDBFB7903F01F02074997F930
:10A0800007305B09012000FA02F241F8232000BFEB
:10A090000C37BD465DF8047B704700BF00E100E06F
:10A0A00080B483B000AF0346FB7197F90730002BF3
:10A0B0000CDBFB7903F01F02074997F907305B09B6
:10A0C000012000FA02F2603341F8232000BF0C3770
:10A0D000BD465DF8047B704700E100E080B483B0CA
:10A0E00000AF03463960FB7197F90730002B0ADB9C
:10A0F0003B68DAB20C4997F907301201D2B20B442F
:10A1000083F800230AE03B68DAB20849FB7903F0E0
:10A110000F03043B1201D2B20B441A7600BF0C3776
:10A12000BD465DF8047B704700E100E000ED00E013
:10A1300080B400AF3F4B1B683E4A43F004031360FA
:10A140003C4B1B683B4A23F08073136000BF394BC4
:10A150001B6803F00073002BF9D1364BDB68354ADE
:10A1600023F00303D360334BDB68324A43F001032F
:10A17000D360304BDB682F4A23F07003D3602D4B44
:10A18000DB682C4A23F4FE43D3602A4BDB68294A60
:10A1900043F42053D360274BDB68264A23F0C06387
:10A1A000D360244B1B68234A43F080731360214B18
:10A1B000DB68204A43F08073D36000BF1D4B1B68EF
:10A1C00003F00073002BF9D01B4B1B681A4A23F0D5
:10A1D00007031360184B1B68174A43F0040313600E
:10A1E000144B9B68134A23F003039360114B9B6845
:10A1F000104A43F00303936000BF0E4B9B6803F0CB
:10A200000C03002BF9D00B4B9B680A4A23F4E06344
:10A210009360084B9B68074A23F460539360054B97
:10A220009B68044A23F0F003936000BFBD465DF8CD
:10A23000047B7047001002400020024080B400AF51
:10A240002E4B1B682D4A43F0040313602B4BD3F8AD
:10A2500088302A4A23F44003C2F88830274B1B6E0B
:10A26000264A43F400131366244B1B68234A23F049
:10A270008063136000BF214B1B6803F00063002B59
:10A28000F9D11E4BDB681D4A23F00303D3601B4B3F
:10A29000DB681A4A43F00103D360184BDB68174AA6
:10A2A00023F07003D360154B1B69144A23F4FE435B
:10A2B0001361124B1B69114A43F4205313610F4B76
:10A2C0001B690E4A23F0C06313610C4B1B680B4AD9
:10A2D00043F080631360094B1B69084A43F08073A5
:10A2E000136100BF054B1B6803F00063002BF9D01E
:10A2F00000BF00BFBD465DF8047B70470010024000
:10A3000080B582B000AF7860144B00221A60134A07
:10A310007B68013B53604FF0FF30FFF7A3FE002145
:10A320004FF0FF30FFF7DAFE0C4B00229A600B4B28
:10A330001B680A4A43F004031360084B1B68074A72
:10A3400043F002031360054B1B68044A43F001030A
:10A35000136000BF0837BD4680BD00BF10E000E0BD
:10A3600080B400AF044B1B680133034A136000BF85
:10A37000BD465DF8047B704708CA000080B400AF9A
:10A38000034B1B681846BD465DF8047B704700BF51
:10A3900008CA000080B584B000AF7860FFF7EEFF18
:10A3A000F86000BFFFF7EAFF0246FB68D31A7A683D
:10A3B0009A42F7D800BF00BF1037BD4680BD80B5B8
:10A3C00000AF4FF0FF30FFF76BFEFFF7C9FF00BF94
:10A3D00080BD000080B483B000AF0346FB7197F9E5
:10A3E0000730002B0BDBFB7903F01F02074997F9BD
:10A3F00007305B09012000FA02F241F8232000BF78
:10A400000C37BD465DF8047B704700BF00E100E0FB
:10A4100080B483B000AF03463960FB7197F9073011
:10A42000002B0ADB3B68DAB20C4997F907301201BE
:10A43000D2B20B4483F800230AE03B68DAB2084941
:10A44000FB7903F00F03043B1201D2B20B441A76DE
:10A4500000BF0C37BD465DF8047B704700E100E0AB
:10A4600000ED00E080B582B000AF0346FB802F4BCB
:10A470001B682E4A23F0010313602D4B9B6D2C4A61
:10A4800023F0100393652A4B9B6D294A43F0100378
:10A490009365264B00221A60244B5B68234A23F005
:10A4A00070035360214B5B68204A43F020035360E4
:10A4B0001E4B9B6A1D4A1B0C1B0493621B4B41F6EF
:10A4C0003F729A62194BDB6A184B0022DA62174B13
:10A4D000D96AFA8813469B0013445B00013B134A78
:10A4E0000B43D362114B01225A61104B0022DA60F8
:10A4F0000E4BDB680D4A43F00103D3600B4BDB6866
:10A500000A4A43F48073D3603620FFF763FF0021CB
:10A510003620FFF77DFF054B1B68044A43F001031B
:10A52000136000BF0837BD4680BD00BF001000406B
:10A530000010024080B483B000AF0346FB80254B7F
:10A540001B68244A23F001031360234B9B6D224AAE
:10A5500023F010039365204B9B6D1F4A43F01003BB
:10A5600093651C4B00221A601A4B5B68194A23F052
:10A5700070035360174B5B68164A43F02003536027
:10A58000144B9B6A134A1B0C1B049362114B41F63C
:10A590003F729A620F4BDB6A0E4B0022DA620D4B60
:10A5A000D96AFA8813469B0013445B00013B094AB1
:10A5B0000B43D362074B01225A61064B1B68054AC5
:10A5C00043F00103136000BF0C37BD465DF8047B08
:10A5D000704700BF001000400010024080B483B0FC
:10A5E00000AF0346FB80314B1B68304A23F0010368
:10A5F00013602F4B1B6E2E4A23F4006313662C4B03
:10A600001B6E2B4A43F400631366284B1B68274AD2
:10A6100023F010031360274B00221A60234B5B6862
:10A62000224A23F070035360204B5B681F4A43F0BB
:10A63000200353601D4B9B6A1C4A1B0C1B04936236
:10A640001A4B41F63F729A62184BDB6A174B002295
:10A65000DA62164BD96AFA8813469B0013445B00F2
:10A66000013B124A0B43D362104B01225A610F4B3C
:10A670001B680E4A43F0010313600C4B1B6E0B4A20
:10A6800023F4E0331366094B1B6D084A23F00303E0
:10A690001365064B1B6D054A43F00103136500BFAC
:10A6A0000C37BD465DF8047B704700BF002C0140AD
:10A6B000001002400010004080B400AF2E4BDB6C55
:10A6C0002D4A43F00103D3644FF090431B684FF0D1
:10A6D000904223F0404323F0300313604FF0904347
:10A6E0001B684FF0904243F0004343F02003136097
:10A6F0004FF090435B684FF0904223F4004323F007
:10A70000040353604FF090439B684FF0904223F056
:10A71000404323F0300393604FF090439B684FF029
:10A72000904243F0004343F0200393604FF0904386
:10A730001B6A4FF0904223F4706313624FF0904312
:10A740001B6A4FF0904263F4006313624FF0904332
:10A750005B6A4FF0904223F0704353624FF0904396
:10A760005B6A4FF0904243F04053536200BFBD46D6
:10A770005DF8047B704700BF0010024080B483B0D6
:10A7800000AF7860284B9B6D274A43F400339365F4
:10A79000264B1B68254A43F008031360234B1B68B4
:10A7A000224A23F480631360204B1B681F4A23F066
:10A7B000805313601D4B1B681C4A23F480531360A5
:10A7C0001A4B5B68194A23F440535360174B9B683C
:10A7D000164A23F400739360144B9B68134A23F4C6
:10A7E00080739360114B0022DA60104A7B68104935
:10A7F000A1FB03131B0CD3600C4B5B680B4A23F4C7
:10A8000090435360094B9B68084A23F02A039360E6
:10A81000064B1B68054A43F00103136000BF0C3769
:10A82000BD465DF8047B70470010024000440040C4
:10A83000C5B3A29180B586B000AFF8600B467A60D0
:10A84000FB720023FB75FFF799FD386119E01A4B85
:10A85000DB6903F08003002B09D0FB7DFA68134409
:10A860001A78154B1A85FB7D0133FB7509E0FFF75C
:10A8700085FD02463B69D31A7A689A4201D80023C3
:10A8800015E0FA7DFB7A9A42E1D309E0FFF776FD05
:10A8900002463B69D31A7A689A4201D8002306E03F
:10A8A000054BDB6903F04003002BEFD10123184671
:10A8B0001837BD4680BD00BF004400400EB403B54C
:10A8C00003AB816853F8042B019300F05BF802B0EE
:10A8D0005DF804EB03B070470FB407B5064904AB4D
:10A8E000086853F8042B8168019300F04BF803B01B
:10A8F0005DF804EB04B0704784C70000014B186892
:10A90000704700BF84C70000034613F8012B002ADC
:10A91000FBD1181A013870479368013B002B10B423
:10A92000936008DA9469A34201DB0A2903D15DF838
:10A93000044B00F029BC1368581C106019700846BD
:10A940005DF8044B7047F8B506460F461446D51817
:10A95000AC4201D1002007E014F8011B3A46304612
:10A96000FFF7DAFF431CF3D1F8BD936810B5144626
:10A9700033B100F0B7FA0023A3600023636010BD79
:10A980001846FAE72DE9F04F0D469DB0144698465B
:10A99000064618B1036A0BB9FDF706FD6B6ED907C1
:10A9A00005D4AB899A0502D4A86DFDF76AFEAB8980
:10A9B0001B0701D52B699BB92946304600F02AFCBC
:10A9C00070B16B6EDC0704D54FF0FF301DB0BDE8F1
:10A9D000F08FAB899805F7D4A86DFDF758FEF3E723
:10A9E0000023099320238DF82930CDF80C803023E3
:10A9F000DFF8AC818DF82A304FF0010923469A46E2
:10AA000013F8012B0AB1252AF9D1BAEB040B0BD0AC
:10AA10005B46224629463046FFF795FF013000F09D
:10AA2000A780099A5A4409929AF80030002B00F046
:10AA30009F8000234FF0FF32CDE905230AF1010A80
:10AA4000049307938DF853301A935446052214F853
:10AA5000011B534800F04CFC049AD8B9D10644BFFE
:10AA600020238DF85330130744BF2B238DF8533028
:10AA70009AF800302A2B15D0079A544600204FF040
:10AA80000A0C214611F8013B303B092B4BD9B0B1E0
:10AA9000079214E0A0EB080309FA03F313430493AD
:10AAA000A246D2E7039B191D1B680391002BBBBF75
:10AAB0005B4242F0020207930793B8BF04922378E7
:10AAC0002E2B0AD163782A2B32D1039B1A1D1B68C7
:10AAD000039243EAE37302340593DFF8D4A02178AC
:10AAE0000322504600F004FC38B1049BA0EB0A009E
:10AAF0004022824013430134049314F8011B294877
:10AB00008DF82810062200F0F3FB00283FD0264BDA
:10AB10001BBB039B073323F0070308330393099BF5
:10AB20003B4409936AE70CFB02320C460120A8E77C
:10AB300000230134059319464FF00A0C204610F803
:10AB4000012B303A092A03D9002BC6D00591C4E75E
:10AB50000CFB012104460123F0E703AB00932A46D6
:10AB6000124B04A93046AFF300800746781CD6D1BB
:10AB70006B6ED90705D4AB899A0502D4A86DFDF791
:10AB800086FDAB895B063FF51FAF09981EE703AB57
:10AB900000932A46054B04A9304600F083F8E4E709
:10ABA00062B500006CB500000000000047A900007D
:10ABB00068B5000013460A46014602480068FFF7E0
:10ABC000E1BE00BF84C700002DE9F0471646984655
:10ABD0008A680B69DDF820909342B8BF1346336052
:10ABE00091F8432007460C460AB1013333602368CD
:10ABF000990642BF336802333360256815F00605B5
:10AC000006D104F1190AE36832689B1AAB4226DCCC
:10AC100094F843302268003B18BF012392062BD4DE
:10AC200004F1430241463846C84701301ED023682C
:10AC3000226903F00603042B02BFE5683368ED1AAE
:10AC4000A3680CBF25EAE57500259342C4BF9B1A93
:10AC5000ED1800261A34B5421AD1002008E001236D
:10AC6000524641463846C847013003D14FF0FF30C5
:10AC7000BDE8F0870135C6E7E1185A1C302081F89D
:10AC80004300224494F8451082F843100233C7E78A
:10AC90000123224641463846C8470130E6D00136F6
:10ACA000D9E700002DE9FF470F7E0C9E782F9146D3
:10ACB00080460C469A4601F1430207D8622F0AD813
:10ACC000002F00F0D280582F00F0B78004F1420628
:10ACD00084F842703AE0A7F16303152BF6D801A17E
:10ACE00051F823F03DAD000051AD0000CDAC0000A7
:10ACF000CDAC0000CDAC0000CDAC000051AD0000EB
:10AD0000CDAC0000CDAC0000CDAC0000CDAC00005F
:10AD100051AE00007BAD000007AE0000CDAC0000DE
:10AD2000CDAC000073AE0000CDAC00007BAD0000E8
:10AD3000CDAC0000CDAC00000FAE000033681A1D92
:10AD40001B68326004F1420684F8423001239DE022
:10AD500033682068191D3160060601D51D6803E0BF
:10AD60004506FBD5B3F90050002D03DA2D236D42C3
:10AD700084F8433059480A2310E0216833680806F4
:10AD800053F8045B02D4490648BFADB26F2F534855
:10AD9000336059D10823002184F843106668A66007
:10ADA000002E05DB21682E4321F0040121604DD0E7
:10ADB0001646B5FBF3F103FB1157C75D06F8017D9D
:10ADC0002F46BB420D46F4D9082B0BD12368DF0771
:10ADD00008D5236961689942DEBF302306F8013C3B
:10ADE00006F1FF36921B2261CDF800A04B4603AA64
:10ADF00021464046FFF7E8FE01304CD14FF0FF30CE
:10AE000004B0BDE8F087236843F020032360344892
:10AE1000782784F84570236831681F0651F8045B71
:10AE200002D45F0648BFADB23160D90744BF43F0DA
:10AE3000200323601DB11023ADE72848E9E723680C
:10AE400023F020032360F6E70A23A4E71646BBE7B6
:10AE5000336825686169181D30602E061B6801D5AE
:10AE6000196002E06806FBD51980002323611646AD
:10AE7000BAE733681A1D32601E68626800213046E6
:10AE800000F036FA08B1801B60606368236100231C
:10AE900084F84330A8E72369324649464046D04704
:10AEA0000130ABD023689B0713D4E068039B984222
:10AEB000B8BF1846A4E70123324649464046D0476A
:10AEC00001309BD00135E36803995B1AAB42F2DC99
:10AED000EBE7002504F11906F5E700BF73B50000A4
:10AEE00084B5000093682DE9F74F06460C4691465D
:10AEF0001BB9002003B0BDE8F08F8B891B0751D52B
:10AF00000B69002B4ED0B4F90CA0D9F800801AF0D0
:10AF100002076BD11AF0010A00F098803846BA4651
:10AF2000BB46BBF1000F00F00A8150B95A460A2116
:10AF3000504600F0DDF9002800F007810130A0EB59
:10AF40000A072068216963695F453A4628BF5A4667
:10AF5000884240F2FD80A5681D44AA4240F3F88073
:10AF600051462A4600F0AAF923682B442360214663
:10AF70003046FDF707FD002840F088807F1B40F039
:10AF8000FF8021463046FDF7FDFC00287ED1D9F830
:10AF900008305B1BAA44ABEB050BC9F80830002B4B
:10AFA000BFD1A6E72146304600F034F90028AAD0E8
:10AFB0004FF0FF309EE7D8E900B708F10808002FEE
:10AFC000F9D057453B46216AA56A28BF53465A46E1
:10AFD0003046A847002859DDD9F808301B1A8344A9
:10AFE0003F1AC9F80830002BE9D182E74FF0000B77
:10AFF000DFF890A15F46E2E7D8E900A508F108086C
:10B00000002DF9D0B4F90CC02068A3681CF4007FAF
:10B0100067D0AB429B461BD92B462F46AB465A46C0
:10B0200020680193514600F049F9A268019BD21AA9
:10B030002368A2605B442360D9F80830DB1BBA4464
:10B04000ED1BC9F80830002BDAD152E75546D7E797
:10B050001CF4906F43D021696769A0EB010B07EBEB
:10B06000470707EBD7770BF101007F102844B84260
:10B070003A4684BF07463A461CF4806F20D01146FA
:10B080003046FDF771FB30B90C233360A38943F0E0
:10B090004003A3818CE75A462169019000F078F9BA
:10B0A000A289019B22F4906242F08002A281236176
:10B0B00067615B44A7EB0B072360A7602B46ACE7F7
:10B0C000304600F073F903460028F0D1216930467C
:10B0D000FDF7DEFAA38923F08003A381D4E72F468E
:10B0E0009DE72269824202D36269AA4216D9AB4225
:10B0F00028BF2B461A4651461F4600F0DFF8A368CA
:10B100002268DB1B3A44A3602260002B94D12146C5
:10B110003046FDF737FC00288ED0B7E76FF00043CC
:10B12000AB4228BF2B46A76A93FBF2F3216A534335
:10B1300030465246B847071E3FF77EAFA6E7D8E92C
:10B1400000AB002008F10808EBE60BF10107F8E678
:10B15000934208DCA56A216A52463046A847051E7C
:10B160003FF70CAF92E75146019200F0A7F8019A21
:10B17000A3689B1AA3602368134423601546FDE669
:10B18000012004E700FCFF7FF8B50E461446054693
:10B1900018B1036A0BB9FDF707F9A369A360A38986
:10B1A0001A0701D5236943B92146284600F032F831
:10B1B00018B14FF0FF373846F8BD23682269981A56
:10B1C0006369F6B28342374605DC21462846FDF71F
:10B1D000D9FB0028EDD1A368013BA36023685A1C6A
:10B1E00022601E706269431C9A4204D0A389DB0767
:10B1F000E1D50A2EDFD121462846FDF7C3FB002802
:10B20000D9D0D6E7024B0A4601461868FFF7BCBF03
:10B2100084C7000038B5284B054618680C4618B19D
:10B22000036A0BB9FDF7C0F8B4F90C301A0721D442
:10B23000D80607D409222A6043F04003A3814FF0C7
:10B24000FF3030E0590712D5616B41B104F144037E
:10B25000994202D02846FDF71BFA002363630022BF
:10B26000B4F90C3062602269226023F0240343F0B9
:10B270000803A38122693AB99A0501D5180603D5B6
:10B280002146284600F0E4F8B4F90C3013F001022E
:10B290000AD00022A26062695242A261226942B9C8
:10B2A00013F08000C8D138BD990758BF6269A26009
:10B2B000F4E70020F7E700BF84C70000884210B51C
:10B2C00001EB020402D98442234607D8431EA1425F
:10B2D00007D011F8012B03F8012FF8E7024482424E
:10B2E00000D110BD13F8011D02F8011DF7E70000A1
:10B2F00001F0FF01102A2BDB10F0070F08D010F827
:10B30000013B013A8B422DD010F0070F42B3F6D12A
:10B31000F0B441EA012141EA014122F007047FF043
:10B3200000070023F0E80256083C85EA010586EA9A
:10B33000010685FA47F5A3FA87F586FA47F6A5FAD6
:10B3400087F68EB9EED1F0BC01F0FF0102F00702E2
:10B3500032B110F8013B013A83EA010313B1F8D18D
:10B360000020704701387047002D06BF354603386E
:10B37000073815F0010F07D1013015F4807F02BFA7
:10B38000013015F4C03F0130F0BC0138704700BFF8
:10B390000A44914200F1FF3300D1704710B511F813
:10B3A000014B03F8014F9142F9D110BD2DE9F04155
:10B3B000074614460D4621B9BDE8F0411146FDF798
:10B3C000D3B92AB9FDF764F925462846BDE8F081CE
:10B3D00000F09AF88442064602D8B4EB500FF4D835
:10B3E00021463846FDF7C0F9804608B94546ECE7E6
:10B3F000B4422246294628BF3246FFF7C9FF2946F4
:10B400003846FDF745F9F1E770B50C46B1F90E1075
:10B41000002996B015461E460ADAA18911F080016E
:10B4200013D14FF48062002031602A6016B070BDE5
:10B430006A4600F047F80028EFDB019901F47041FB
:10B44000A1F5005359425941EBE700214022EAE7B8
:10B450008B8973B59E0705460C4607D504F1470353
:10B46000236023610123636102B070BD01AB6A46B2
:10B47000FFF7CAFF009E28463146FDF775F9B4F97B
:10B480000C3038B99A05EFD423F0030343F00203DC
:10B49000A381E3E743F08003A381019B2060C4E91B
:10B4A0000406002BE0D0B4F90E10284600F01CF87A
:10B4B0000028D9D0A38923F0030343F00103A3811B
:10B4C000D2E7000038B5074D002304460846114670
:10B4D0002B60FDF70CFC431C02D12B6803B12360E9
:10B4E00038BD00BF3CC9000038B5064D00230446F6
:10B4F00008462B60FDF7B8FD431C02D12B6803B151
:10B50000236038BD3CC9000051F8043C181F002BD3
:08B51000BCBF0B58C0187047C6
:0CB51800F8B500BFF8BC08BC9E467047A8
:10B524003E410C4111412741364103410641154139
:10B534000F410E41264113412941024119410A415B
:10B544000B4100003A73656D69686F7374696E67C7
:10B554002D6665617475726573003A747400232DE9
:10B56400302B2000686C4C00656667454647003008
:10B574003132333435363738394142434445460055
:10B584003031323334353637383961626364656655
:10B5940000000000546865204144432076616C75C6
:10B5A400652069732025750A0D000000414443207D
:10B5B40056616C75652072656164206661696C65AD
:10B5C400640A0D00415744207761732074726967DF
:10B5D4006765720A0D000000000000000000000012
:10B5E4000102030406070809000000000102030425
:10B5F400A0860100400D0300801A060000350C00EF
:10B6040040420F0080841E0000093D0000127A00B1
:10B614000024F40000366E010048E801006CDC02EE
:10B624003E410C4111412741364103410641154138
:10B634000F410E41264113412941024119410A415A
:04B644000B410000B6
:08B6480078CAFF7F0100000039
:04B6500000000000F6
:04C654009D800000C5
:04C6580075800000E9
:10C65C0000000000000000000000000000000000CE
:10C66C0000000000000000000000000000000000BE
:10C67C0000000000000000000000000000000000AE
:10C68C00000000000000000000000000000000009E
:10C69C00000000000000000000000000000000008E
:10C6AC00000000000000000000000000000000007E
:10C6BC00000000000000000000000000000000006E
:10C6CC00000000000000000000000000000000005E
:10C6DC00000000000000000000000000000000004E
:10C6EC00000000000000000000000000000000003E
:10C6FC00000000000000000000000000000000002E
:10C70C00000000000000000000000000000000001D
:10C71C00000000000000000000000000000000000D
:10C72C0000000000000000000000000000000000FD
:10C73C0000000000000000000000000000000000ED
:10C74C0000000000000000000000000000000000DD
:10C75C0000000000000000000000000000000000CD
:10C76C000000000070C60000FF0000000000000088
:10C77C000300000000C8000088C700000000000093
:10C78C0000C8000068C80000D0C80000000000000D
:10C79C00000000000000000000000000000000008D
:10C7AC00000000000000000000000000000000007D
:10C7BC00000000000000000000000000000000006D
:10C7CC000000000000000000ADDEFECAFFFFFFFF0E
:08C7DC00FFFFFFFF00093D0013
:04000003000080CDAC
:00000001FF
